{
  "_format": "hh-sol-artifact-1",
  "contractName": "AuctionContract",
  "sourceName": "contracts/AuctionContract.sol",
  "abi": [
    {
      "anonymous": false,
      "inputs": [
        {
          "indexed": true,
          "internalType": "uint256",
          "name": "auctionId",
          "type": "uint256"
        },
        {
          "indexed": true,
          "internalType": "address",
          "name": "seller",
          "type": "address"
        },
        {
          "indexed": false,
          "internalType": "uint256",
          "name": "startingPrice",
          "type": "uint256"
        },
        {
          "indexed": false,
          "internalType": "uint256",
          "name": "endTime",
          "type": "uint256"
        }
      ],
      "name": "AuctionCreated",
      "type": "event"
    },
    {
      "anonymous": false,
      "inputs": [
        {
          "indexed": true,
          "internalType": "uint256",
          "name": "auctionId",
          "type": "uint256"
        },
        {
          "indexed": true,
          "internalType": "address",
          "name": "winner",
          "type": "address"
        },
        {
          "indexed": false,
          "internalType": "uint256",
          "name": "amount",
          "type": "uint256"
        }
      ],
      "name": "AuctionEnded",
      "type": "event"
    },
    {
      "anonymous": false,
      "inputs": [
        {
          "indexed": true,
          "internalType": "uint256",
          "name": "auctionId",
          "type": "uint256"
        },
        {
          "indexed": true,
          "internalType": "address",
          "name": "bidder",
          "type": "address"
        },
        {
          "indexed": false,
          "internalType": "uint256",
          "name": "amount",
          "type": "uint256"
        }
      ],
      "name": "BidPlaced",
      "type": "event"
    },
    {
      "anonymous": false,
      "inputs": [
        {
          "indexed": true,
          "internalType": "uint256",
          "name": "auctionId",
          "type": "uint256"
        },
        {
          "indexed": true,
          "internalType": "address",
          "name": "seller",
          "type": "address"
        },
        {
          "indexed": false,
          "internalType": "uint256",
          "name": "amount",
          "type": "uint256"
        }
      ],
      "name": "FundsWithdrawn",
      "type": "event"
    },
    {
      "anonymous": false,
      "inputs": [
        {
          "indexed": true,
          "internalType": "uint256",
          "name": "auctionId",
          "type": "uint256"
        },
        {
          "indexed": true,
          "internalType": "address",
          "name": "buyer",
          "type": "address"
        },
        {
          "indexed": false,
          "internalType": "uint256",
          "name": "amount",
          "type": "uint256"
        }
      ],
      "name": "PaymentReceived",
      "type": "event"
    },
    {
      "inputs": [
        {
          "internalType": "uint256",
          "name": "",
          "type": "uint256"
        }
      ],
      "name": "auctions",
      "outputs": [
        {
          "internalType": "uint256",
          "name": "id",
          "type": "uint256"
        },
        {
          "internalType": "address payable",
          "name": "seller",
          "type": "address"
        },
        {
          "internalType": "uint256",
          "name": "startingPrice",
          "type": "uint256"
        },
        {
          "internalType": "uint256",
          "name": "currentPrice",
          "type": "uint256"
        },
        {
          "internalType": "address payable",
          "name": "highestBidder",
          "type": "address"
        },
        {
          "internalType": "uint256",
          "name": "endTime",
          "type": "uint256"
        },
        {
          "internalType": "bool",
          "name": "ended",
          "type": "bool"
        },
        {
          "internalType": "bool",
          "name": "paid",
          "type": "bool"
        }
      ],
      "stateMutability": "view",
      "type": "function"
    },
    {
      "inputs": [
        {
          "internalType": "uint256",
          "name": "_endTime",
          "type": "uint256"
        },
        {
          "internalType": "uint256",
          "name": "_startingPrice",
          "type": "uint256"
        }
      ],
      "name": "createAuction",
      "outputs": [
        {
          "internalType": "uint256",
          "name": "",
          "type": "uint256"
        }
      ],
      "stateMutability": "nonpayable",
      "type": "function"
    },
    {
      "inputs": [
        {
          "internalType": "uint256",
          "name": "_auctionId",
          "type": "uint256"
        }
      ],
      "name": "endAuction",
      "outputs": [],
      "stateMutability": "nonpayable",
      "type": "function"
    },
    {
      "inputs": [
        {
          "internalType": "uint256",
          "name": "_auctionId",
          "type": "uint256"
        }
      ],
      "name": "getAuction",
      "outputs": [
        {
          "internalType": "address",
          "name": "seller",
          "type": "address"
        },
        {
          "internalType": "uint256",
          "name": "startingPrice",
          "type": "uint256"
        },
        {
          "internalType": "uint256",
          "name": "currentPrice",
          "type": "uint256"
        },
        {
          "internalType": "address",
          "name": "highestBidder",
          "type": "address"
        },
        {
          "internalType": "uint256",
          "name": "endTime",
          "type": "uint256"
        },
        {
          "internalType": "bool",
          "name": "ended",
          "type": "bool"
        },
        {
          "internalType": "bool",
          "name": "paid",
          "type": "bool"
        }
      ],
      "stateMutability": "view",
      "type": "function"
    },
    {
      "inputs": [
        {
          "internalType": "uint256",
          "name": "_auctionId",
          "type": "uint256"
        }
      ],
      "name": "makePayment",
      "outputs": [],
      "stateMutability": "payable",
      "type": "function"
    },
    {
      "inputs": [
        {
          "internalType": "uint256",
          "name": "_auctionId",
          "type": "uint256"
        }
      ],
      "name": "placeBid",
      "outputs": [],
      "stateMutability": "payable",
      "type": "function"
    },
    {
      "inputs": [
        {
          "internalType": "uint256",
          "name": "_auctionId",
          "type": "uint256"
        }
      ],
      "name": "withdrawFunds",
      "outputs": [],
      "stateMutability": "nonpayable",
      "type": "function"
    }
  ],
  "bytecode": "0x608060405234801561001057600080fd5b50611a4c806100206000396000f3fe6080604052600436106100705760003560e01c8063571a26a01161004e578063571a26a0146100f757806378bd79351461013b5780639979ef451461017e578063b9a2de3a1461019a57610070565b80630121683f14610075578063155dd5ee146100b25780635114cb52146100db575b600080fd5b34801561008157600080fd5b5061009c60048036038101906100979190610fa0565b6101c3565b6040516100a99190610fef565b60405180910390f35b3480156100be57600080fd5b506100d960048036038101906100d4919061100a565b610438565b005b6100f560048036038101906100f0919061100a565b6106de565b005b34801561010357600080fd5b5061011e6004803603810190610119919061100a565b6108e0565b604051610132989796959493929190611093565b60405180910390f35b34801561014757600080fd5b50610162600480360381019061015d919061100a565b610982565b6040516101759796959493929190611132565b60405180910390f35b6101986004803603810190610193919061100a565b610a39565b005b3480156101a657600080fd5b506101c160048036038101906101bc919061100a565b610d8c565b005b6000428311610207576040517f08c379a00000000000000000000000000000000000000000000000000000000081526004016101fe906111fe565b60405180910390fd5b6000821161024a576040517f08c379a000000000000000000000000000000000000000000000000000000000815260040161024190611290565b60405180910390fd5b60006001600081548092919061025f906112df565b9190505590506040518061010001604052808281526020013373ffffffffffffffffffffffffffffffffffffffff168152602001848152602001848152602001600073ffffffffffffffffffffffffffffffffffffffff168152602001858152602001600015158152602001600015158152506000808381526020019081526020016000206000820151816000015560208201518160010160006101000a81548173ffffffffffffffffffffffffffffffffffffffff021916908373ffffffffffffffffffffffffffffffffffffffff160217905550604082015181600201556060820151816003015560808201518160040160006101000a81548173ffffffffffffffffffffffffffffffffffffffff021916908373ffffffffffffffffffffffffffffffffffffffff16021790555060a0820151816005015560c08201518160060160006101000a81548160ff02191690831515021790555060e08201518160060160016101000a81548160ff0219169083151502179055509050503373ffffffffffffffffffffffffffffffffffffffff16817fc9050d42180a61cb0d9ebb8ad118b62fe6eab12cf12ff752c4a0cc7da9ddf6278587604051610426929190611327565b60405180910390a38091505092915050565b600080600083815260200190815260200160002090508060010160009054906101000a900473ffffffffffffffffffffffffffffffffffffffff1673ffffffffffffffffffffffffffffffffffffffff163373ffffffffffffffffffffffffffffffffffffffff16146104e0576040517f08c379a00000000000000000000000000000000000000000000000000000000081526004016104d79061139c565b60405180910390fd5b8060060160009054906101000a900460ff16610531576040517f08c379a000000000000000000000000000000000000000000000000000000000815260040161052890611408565b60405180910390fd5b8060060160019054906101000a900460ff16610582576040517f08c379a000000000000000000000000000000000000000000000000000000000815260040161057990611474565b60405180910390fd5b6000816003015490506000826003018190555060008260010160009054906101000a900473ffffffffffffffffffffffffffffffffffffffff1673ffffffffffffffffffffffffffffffffffffffff16826040516105df906114c5565b60006040518083038185875af1925050503d806000811461061c576040519150601f19603f3d011682016040523d82523d6000602084013e610621565b606091505b5050905080610665576040517f08c379a000000000000000000000000000000000000000000000000000000000815260040161065c9061154c565b60405180910390fd5b8260010160009054906101000a900473ffffffffffffffffffffffffffffffffffffffff1673ffffffffffffffffffffffffffffffffffffffff16847ff440aec6b52895984d061d622e6edeba6210f7c3e059be920663140c084560d7846040516106d09190610fef565b60405180910390a350505050565b600080600083815260200190815260200160002090508060060160009054906101000a900460ff16610745576040517f08c379a000000000000000000000000000000000000000000000000000000000815260040161073c90611408565b60405180910390fd5b8060040160009054906101000a900473ffffffffffffffffffffffffffffffffffffffff1673ffffffffffffffffffffffffffffffffffffffff163373ffffffffffffffffffffffffffffffffffffffff16146107d7576040517f08c379a00000000000000000000000000000000000000000000000000000000081526004016107ce906115de565b60405180910390fd5b8060060160019054906101000a900460ff1615610829576040517f08c379a00000000000000000000000000000000000000000000000000000000081526004016108209061164a565b60405180910390fd5b8060030154341015610870576040517f08c379a0000000000000000000000000000000000000000000000000000000008152600401610867906116b6565b60405180910390fd5b60018160060160016101000a81548160ff0219169083151502179055503373ffffffffffffffffffffffffffffffffffffffff16827f4d3f6d68b42e1e039d6e7323b2b8bdeaf223f453882ce17a5984f4d6aabbdb33346040516108d49190610fef565b60405180910390a35050565b60006020528060005260406000206000915090508060000154908060010160009054906101000a900473ffffffffffffffffffffffffffffffffffffffff16908060020154908060030154908060040160009054906101000a900473ffffffffffffffffffffffffffffffffffffffff16908060050154908060060160009054906101000a900460ff16908060060160019054906101000a900460ff16905088565b6000806000806000806000806000808a815260200190815260200160002090508060010160009054906101000a900473ffffffffffffffffffffffffffffffffffffffff16816002015482600301548360040160009054906101000a900473ffffffffffffffffffffffffffffffffffffffff1684600501548560060160009054906101000a900460ff168660060160019054906101000a900460ff16975097509750975097509750975050919395979092949650565b6000806000838152602001908152602001600020905080600501544210610a95576040517f08c379a0000000000000000000000000000000000000000000000000000000008152600401610a8c90611722565b60405180910390fd5b8060060160009054906101000a900460ff1615610ae7576040517f08c379a0000000000000000000000000000000000000000000000000000000008152600401610ade9061178e565b60405180910390fd5b8060010160009054906101000a900473ffffffffffffffffffffffffffffffffffffffff1673ffffffffffffffffffffffffffffffffffffffff163373ffffffffffffffffffffffffffffffffffffffff1603610b79576040517f08c379a0000000000000000000000000000000000000000000000000000000008152600401610b7090611820565b60405180910390fd5b80600301543411610bbf576040517f08c379a0000000000000000000000000000000000000000000000000000000008152600401610bb6906118b2565b60405180910390fd5b600073ffffffffffffffffffffffffffffffffffffffff168160040160009054906101000a900473ffffffffffffffffffffffffffffffffffffffff1673ffffffffffffffffffffffffffffffffffffffff1614610ced5760008160040160009054906101000a900473ffffffffffffffffffffffffffffffffffffffff1673ffffffffffffffffffffffffffffffffffffffff168260030154604051610c65906114c5565b60006040518083038185875af1925050503d8060008114610ca2576040519150601f19603f3d011682016040523d82523d6000602084013e610ca7565b606091505b5050905080610ceb576040517f08c379a0000000000000000000000000000000000000000000000000000000008152600401610ce29061191e565b60405180910390fd5b505b338160040160006101000a81548173ffffffffffffffffffffffffffffffffffffffff021916908373ffffffffffffffffffffffffffffffffffffffff1602179055503481600301819055503373ffffffffffffffffffffffffffffffffffffffff16827f0e54eff26401bf69b81b26f60bd85ef47f5d85275c1d268d84f68d6897431c4734604051610d809190610fef565b60405180910390a35050565b600080600083815260200190815260200160002090508060010160009054906101000a900473ffffffffffffffffffffffffffffffffffffffff1673ffffffffffffffffffffffffffffffffffffffff163373ffffffffffffffffffffffffffffffffffffffff1614610e34576040517f08c379a0000000000000000000000000000000000000000000000000000000008152600401610e2b9061198a565b60405180910390fd5b8060050154421015610e7b576040517f08c379a0000000000000000000000000000000000000000000000000000000008152600401610e7290611408565b60405180910390fd5b8060060160009054906101000a900460ff1615610ecd576040517f08c379a0000000000000000000000000000000000000000000000000000000008152600401610ec4906119f6565b60405180910390fd5b60018160060160006101000a81548160ff0219169083151502179055508060040160009054906101000a900473ffffffffffffffffffffffffffffffffffffffff1673ffffffffffffffffffffffffffffffffffffffff16827fd2aa34a4fdbbc6dff6a3e56f46e0f3ae2a31d7785ff3487aa5c95c642acea5018360030154604051610f599190610fef565b60405180910390a35050565b600080fd5b6000819050919050565b610f7d81610f6a565b8114610f8857600080fd5b50565b600081359050610f9a81610f74565b92915050565b60008060408385031215610fb757610fb6610f65565b5b6000610fc585828601610f8b565b9250506020610fd685828601610f8b565b9150509250929050565b610fe981610f6a565b82525050565b60006020820190506110046000830184610fe0565b92915050565b6000602082840312156110205761101f610f65565b5b600061102e84828501610f8b565b91505092915050565b600073ffffffffffffffffffffffffffffffffffffffff82169050919050565b600061106282611037565b9050919050565b61107281611057565b82525050565b60008115159050919050565b61108d81611078565b82525050565b6000610100820190506110a9600083018b610fe0565b6110b6602083018a611069565b6110c36040830189610fe0565b6110d06060830188610fe0565b6110dd6080830187611069565b6110ea60a0830186610fe0565b6110f760c0830185611084565b61110460e0830184611084565b9998505050505050505050565b600061111c82611037565b9050919050565b61112c81611111565b82525050565b600060e082019050611147600083018a611123565b6111546020830189610fe0565b6111616040830188610fe0565b61116e6060830187611123565b61117b6080830186610fe0565b61118860a0830185611084565b61119560c0830184611084565b98975050505050505050565b600082825260208201905092915050565b7f456e642074696d65206d75737420626520696e20746865206675747572650000600082015250565b60006111e8601e836111a1565b91506111f3826111b2565b602082019050919050565b60006020820190508181036000830152611217816111db565b9050919050565b7f5374617274696e67207072696365206d7573742062652067726561746572207460008201527f68616e2030000000000000000000000000000000000000000000000000000000602082015250565b600061127a6025836111a1565b91506112858261121e565b604082019050919050565b600060208201905081810360008301526112a98161126d565b9050919050565b7f4e487b7100000000000000000000000000000000000000000000000000000000600052601160045260246000fd5b60006112ea82610f6a565b91507fffffffffffffffffffffffffffffffffffffffffffffffffffffffffffffffff820361131c5761131b6112b0565b5b600182019050919050565b600060408201905061133c6000830185610fe0565b6113496020830184610fe0565b9392505050565b7f4f6e6c792073656c6c65722063616e2077697468647261772066756e64730000600082015250565b6000611386601e836111a1565b915061139182611350565b602082019050919050565b600060208201905081810360008301526113b581611379565b9050919050565b7f41756374696f6e20686173206e6f7420656e6465642079657400000000000000600082015250565b60006113f26019836111a1565b91506113fd826113bc565b602082019050919050565b60006020820190508181036000830152611421816113e5565b9050919050565b7f5061796d656e7420686173206e6f74206265656e206d61646520796574000000600082015250565b600061145e601d836111a1565b915061146982611428565b602082019050919050565b6000602082019050818103600083015261148d81611451565b9050919050565b600081905092915050565b50565b60006114af600083611494565b91506114ba8261149f565b600082019050919050565b60006114d0826114a2565b9150819050919050565b7f4661696c656420746f207472616e736665722066756e647320746f2073656c6c60008201527f6572000000000000000000000000000000000000000000000000000000000000602082015250565b60006115366022836111a1565b9150611541826114da565b604082019050919050565b6000602082019050818103600083015261156581611529565b9050919050565b7f4f6e6c792068696768657374206269646465722063616e206d616b652070617960008201527f6d656e7400000000000000000000000000000000000000000000000000000000602082015250565b60006115c86024836111a1565b91506115d38261156c565b604082019050919050565b600060208201905081810360008301526115f7816115bb565b9050919050565b7f5061796d656e7420616c7265616479206d616465000000000000000000000000600082015250565b60006116346014836111a1565b915061163f826115fe565b602082019050919050565b6000602082019050818103600083015261166381611627565b9050919050565b7f496e73756666696369656e74207061796d656e7420616d6f756e740000000000600082015250565b60006116a0601b836111a1565b91506116ab8261166a565b602082019050919050565b600060208201905081810360008301526116cf81611693565b9050919050565b7f41756374696f6e2068617320656e646564000000000000000000000000000000600082015250565b600061170c6011836111a1565b9150611717826116d6565b602082019050919050565b6000602082019050818103600083015261173b816116ff565b9050919050565b7f41756374696f6e20616c72656164792066696e616c697a656400000000000000600082015250565b60006117786019836111a1565b915061178382611742565b602082019050919050565b600060208201905081810360008301526117a78161176b565b9050919050565b7f53656c6c65722063616e6e6f7420626964206f6e207468656972206f776e206160008201527f756374696f6e0000000000000000000000000000000000000000000000000000602082015250565b600061180a6026836111a1565b9150611815826117ae565b604082019050919050565b60006020820190508181036000830152611839816117fd565b9050919050565b7f426964206d75737420626520686967686572207468616e2063757272656e742060008201527f7072696365000000000000000000000000000000000000000000000000000000602082015250565b600061189c6025836111a1565b91506118a782611840565b604082019050919050565b600060208201905081810360008301526118cb8161188f565b9050919050565b7f4661696c656420746f20726566756e642070726576696f757320626964646572600082015250565b60006119086020836111a1565b9150611913826118d2565b602082019050919050565b60006020820190508181036000830152611937816118fb565b9050919050565b7f4f6e6c792073656c6c65722063616e20656e64207468652061756374696f6e00600082015250565b6000611974601f836111a1565b915061197f8261193e565b602082019050919050565b600060208201905081810360008301526119a381611967565b9050919050565b7f41756374696f6e20616c726561647920656e6465640000000000000000000000600082015250565b60006119e06015836111a1565b91506119eb826119aa565b602082019050919050565b60006020820190508181036000830152611a0f816119d3565b905091905056fea26469706673582212206338fb2829c0a34266a397bd786b826f385f1ff167d6584b6c05c2495c3cde1e64736f6c63430008140033",
  "linkReferences": {},
  "deployedLinkReferences": {}
}