{
  "_format": "hh-sol-artifact-1",
  "contractName": "PaymentProcessor",
  "sourceName": "contracts/PaymentProcessor.sol",
  "abi": [
    {
      "inputs": [
        {
          "internalType": "address",
          "name": "auctionContractAddress",
          "type": "address"
        }
      ],
      "stateMutability": "nonpayable",
      "type": "constructor"
    },
    {
      "anonymous": false,
      "inputs": [
        {
          "indexed": true,
          "internalType": "uint256",
          "name": "auctionId",
          "type": "uint256"
        },
        {
          "indexed": false,
          "internalType": "address",
          "name": "buyer",
          "type": "address"
        },
        {
          "indexed": false,
          "internalType": "uint256",
          "name": "usdAmount",
          "type": "uint256"
        },
        {
          "indexed": false,
          "internalType": "uint256",
          "name": "ethAmount",
          "type": "uint256"
        }
      ],
      "name": "PaymentProcessed",
      "type": "event"
    },
    {
      "stateMutability": "payable",
      "type": "fallback"
    },
    {
      "inputs": [
        {
          "internalType": "uint256",
          "name": "usdAmount",
          "type": "uint256"
        }
      ],
      "name": "getEthAmount",
      "outputs": [
        {
          "internalType": "uint256",
          "name": "",
          "type": "uint256"
        }
      ],
      "stateMutability": "pure",
      "type": "function"
    },
    {
      "inputs": [
        {
          "internalType": "uint256",
          "name": "auctionId",
          "type": "uint256"
        },
        {
          "internalType": "uint256",
          "name": "usdAmount",
          "type": "uint256"
        }
      ],
      "name": "processPayment",
      "outputs": [],
      "stateMutability": "payable",
      "type": "function"
    },
    {
      "stateMutability": "payable",
      "type": "receive"
    }
  ],
  "bytecode": "0x608060405234801561001057600080fd5b506040516107a13803806107a1833981810160405281019061003291906100db565b806000806101000a81548173ffffffffffffffffffffffffffffffffffffffff021916908373ffffffffffffffffffffffffffffffffffffffff16021790555050610108565b600080fd5b600073ffffffffffffffffffffffffffffffffffffffff82169050919050565b60006100a88261007d565b9050919050565b6100b88161009d565b81146100c357600080fd5b50565b6000815190506100d5816100af565b92915050565b6000602082840312156100f1576100f0610078565b5b60006100ff848285016100c6565b91505092915050565b61068a806101176000396000f3fe60806040526004361061002d5760003560e01c80638fc7a25d14610036578063df9d58ff1461007357610034565b3661003457005b005b34801561004257600080fd5b5061005d600480360381019061005891906102eb565b61008f565b60405161006a9190610327565b60405180910390f35b61008d60048036038101906100889190610342565b6100a1565b005b600061009a8261027f565b9050919050565b60006100ac8261027f565b9050803410156100f1576040517f08c379a00000000000000000000000000000000000000000000000000000000081526004016100e890610405565b60405180910390fd5b60008054906101000a900473ffffffffffffffffffffffffffffffffffffffff1673ffffffffffffffffffffffffffffffffffffffff16635114cb5282856040518363ffffffff1660e01b815260040161014b9190610327565b6000604051808303818588803b15801561016457600080fd5b505af1158015610178573d6000803e3d6000fd5b50505050508034111561023e5760003373ffffffffffffffffffffffffffffffffffffffff1682346101aa9190610454565b6040516101b6906104b9565b60006040518083038185875af1925050503d80600081146101f3576040519150601f19603f3d011682016040523d82523d6000602084013e6101f8565b606091505b505090508061023c576040517f08c379a00000000000000000000000000000000000000000000000000000000081526004016102339061051a565b60405180910390fd5b505b827f3752d299ee850882ff779a81f3571c4d0952aec5f8fe5b833257fae354ee5c173384846040516102729392919061057b565b60405180910390a2505050565b600068a2a15d09519be00000670de0b6b3a76400008361029f91906105b2565b6102a99190610623565b9050919050565b600080fd5b6000819050919050565b6102c8816102b5565b81146102d357600080fd5b50565b6000813590506102e5816102bf565b92915050565b600060208284031215610301576103006102b0565b5b600061030f848285016102d6565b91505092915050565b610321816102b5565b82525050565b600060208201905061033c6000830184610318565b92915050565b60008060408385031215610359576103586102b0565b5b6000610367858286016102d6565b9250506020610378858286016102d6565b9150509250929050565b600082825260208201905092915050565b7f496e73756666696369656e74204554482073656e7420666f72207061796d656e60008201527f7400000000000000000000000000000000000000000000000000000000000000602082015250565b60006103ef602183610382565b91506103fa82610393565b604082019050919050565b6000602082019050818103600083015261041e816103e2565b9050919050565b7f4e487b7100000000000000000000000000000000000000000000000000000000600052601160045260246000fd5b600061045f826102b5565b915061046a836102b5565b925082820390508181111561048257610481610425565b5b92915050565b600081905092915050565b50565b60006104a3600083610488565b91506104ae82610493565b600082019050919050565b60006104c482610496565b9150819050919050565b7f4661696c656420746f20726566756e6420657863657373204554480000000000600082015250565b6000610504601b83610382565b915061050f826104ce565b602082019050919050565b60006020820190508181036000830152610533816104f7565b9050919050565b600073ffffffffffffffffffffffffffffffffffffffff82169050919050565b60006105658261053a565b9050919050565b6105758161055a565b82525050565b6000606082019050610590600083018661056c565b61059d6020830185610318565b6105aa6040830184610318565b949350505050565b60006105bd826102b5565b91506105c8836102b5565b92508282026105d6816102b5565b915082820484148315176105ed576105ec610425565b5b5092915050565b7f4e487b7100000000000000000000000000000000000000000000000000000000600052601260045260246000fd5b600061062e826102b5565b9150610639836102b5565b925082610649576106486105f4565b5b82820490509291505056fea2646970667358221220ccc7c79e7645844c0915929d12e0af4fb6a338d47369be852bba09c5a393b34864736f6c63430008140033",
  "linkReferences": {},
  "deployedLinkReferences": {}
}